:03000000020100FA
:10010000759842758921C28D758DFDD28EC2B2D28D
:10011000B375903812024671A975900612024671A5
:10012000A975900C12024671A975900112024671D0
:10013000A9740075A00312021F7AD0EA1201EB1213
:1001400002197B6BEB1201EB1202197B00EB12011F
:10015000EB120219120231740075A00312021F7A09
:10016000D0EA1201EB1202197B1BEB1201EB120217
:10017000197B00EB1201EB120219120231753702E2
:100180007536047B397C5712037CE53614F5360B43
:100190000B0C60E9740075A0037AD012021FEA12FA
:1001A00001EB120219EB1201EB1202197AD11202C1
:1001B0001FEA1201EB120213120204F530E53614A5
:1001C0006017E5305480B4001875312BE530120209
:1001D0004B12023112039980B1E530941AF5308048
:1001E000E375312DE530F4F53080E37900F8548083
:1001F000B48005D2A10201FAC2A112023E09E8238D
:10020000B908EA2279007400A2A13312023E09B9AA
:1002100008F622D2A112023E22C2A112023E22D22E
:10022000A0120399D2A1120399C2A1120399C2A0EC
:1002300022D2A0120399C2A1120399D2A122D2A064
:10024000120399C2A022C2B3D2B32275F002A475E0
:10025000F00584253075F064842430F532E5F075BE
:10026000F00A842430F533E5F02430F5343099FD7C
:10027000D2B2D2B38C908C995146C2993099FD7507
:10028000903A514675993AC2993099FD759920C2B4
:10029000993099FD759920C2993099FD759920C2C0
:1002A000993099FD759920C2993099FD759920C2B0
:1002B000993099FD759920C2993099FD759920C2A0
:1002C000993099FD759920C2993099FD85319051E9
:1002D00046853199C2993099FD85329051468532D3
:1002E00099C2993099FD8533905146853399C299C9
:1002F0003099FD8534905146853499C2993099FDE5
:100300007590DF514675992AC2993099FD759020F4
:100310005146759920C2993099FD759920C299303E
:1003200099FD759920C2993099FD759920C299302F
:1003300099FD759920C2993099FD759920C299301F
:1003400099FD759920C2993099FD759920C299300F
:1003500099FD759920C2993099FD759920C29930FF
:1003600099FD759920C2993099FD759920C299D54A
:100370003709C2B2D2B37590C05146221203A9C246
:10038000B2D2B375900151463099FD75990AC29960
:100390003099FD75990DC29922758A30758CFFD2FE
:1003A0008C308DFDC28DC28C227F327E327D64DD29
:0603B000FEDEFADFF6227A
:00000001FF
